:020000040000FA
:040000008031A8287B
:100008007E1480312000911C0A280B2849280330CF
:10001800750203181028112816280130F6007608F2
:10002800F5071828F501182816302102443003195D
:10003800200203182028212826280130A007003094
:10004800A13D4528A001A101AA01AA0A0F30720208
:1000580003182F28302835280130F6007608F207D3
:100068004528F2010330710203183B283C28412837
:100078000130F6007608F1074528F10145284528A2
:100088004528A901A90A91104928911D4C284D28F5
:10009800A62824001108F600F70176082000A2001F
:1000A8007708A3002308F7002208F6000430F73683
:1000B800F60C890B5B2876080739F8007808F400F5
:1000C800A001A101AA01F3018D28200022088F397F
:1000D800F6007608AF00A328200022088F39F60022
:1000E8007608AE00A328200022088F39F60076088B
:1000F800AD00A328200022088F39F6007608AC004E
:10010800A328F301F30A24009512951315139516E5
:10011800A3287408F600F7017708003A0319952810
:1001280085287608013A03196928033A03197028C3
:10013800013A03197728073A03197E2885282000F1
:100148009111A6287E1009008031AA28F001F1013A
:10015800F201F301F401F50120308400003085003C
:1001680010308631E72680317E1020008E314E2EE9
:10017800790C2200031C8C1203188C16790C031CB2
:100188000E1103180E15790C031C0C1203180C160B
:10019800790C031C8E1003188E14790C031C0C1197
:1001A80003180C15790C031C0E1003180E14790C87
:1001B800031C8D1203188D16790C031C8E1103185D
:1001C8008E15790C031C0E1303180E17790C031CDB
:1001D8000E1203180E16790C031C8E1203188E16B5
:1001E800790C031C8D1303188D173B2E700C2200FD
:1001F800031C8C1203188C16700C031C0E110318A8
:100208000E15700C031C0C1203180C16700C031C32
:100218008E1003188E14700C031C0C1103180C1587
:10022800700C031C0E1003180E14790C031C8D128D
:1002380003188D16790C031C8E1103188E15A32E26
:10024800790C2200031C8C1203188C16700C031CEA
:100258000E1103180E15700C031C0C1203180C1643
:10026800790C031C8E1003188E14790C031C0C11C6
:1002780003180C15790C031C0E1003180E14790CB6
:10028800031C8D1203188D16790C031C8E1103188C
:100298008E15A32E700C2200031C8C1203188C16CA
:1002A800700C031C0E1103180E15790C031C0C128C
:1002B80003180C16700C031C8E1003188E14700C87
:1002C800031C0C1103180C15790C031C0E100318D1
:1002D8000E14700C031C8D1203188D16790C031C58
:1002E8008E1103188E15A32E700C2200031C8C127D
:1002F80003188C16700C031C0E1103180E15700CC5
:10030800031C0C1203180C16700C031C8E10031817
:100318008E14790C031C0C1103180C15790C031C92
:100328000E1003180E14700C031C8D1203188D1672
:10033800790C031C8E1103188E15A32E790C22003C
:10034800031C8C1203188C16700C031C0E11031856
:100358000E15700C031C0C1203180C16790C031CD8
:100368008E1003188E14790C031C0C1103180C152D
:10037800700C031C0E1003180E14700C031C8D1245
:1003880003188D16790C031C8E1103188E15A32ED5
:10039800700C2200031C8C1203188C16790C031C99
:1003A8000E1103180E15700C031C0C1203180C16F2
:1003B800700C031C8E1003188E14790C031C0C117E
:1003C80003180C15700C031C0E1003180E14700C77
:1003D800031C8D1203188D16790C031C8E1103183B
:1003E8008E15A32E700C2200031C8C1203188C1679
:1003F800790C031C0E1103180E15700C031C0C123B
:1004080003180C16700C031C8E1003188E14700C35
:10041800031C0C1103180C15700C031C0E10031888
:100428000E14700C031C8D1203188D16790C031C06
:100438008E1103188E15A32E700C2200031C8C122B
:1004480003188C16700C031C0E1103180E15700C73
:10045800031C0C1203180C16790C031C8E100318BD
:100468008E14790C031C0C1103180C15790C031C41
:100478000E1003180E14790C031C8D1203188D1618
:10048800790C031C8E1103188E15A32E700C2200F4
:10049800031C8C1203188C16700C031C0E11031805
:1004A8000E15700C031C0C1203180C16700C031C90
:1004B8008E1003188E14700C031C0C1103180C15E5
:1004C800700C031C0E1003180E14700C031C8D12F4
:1004D80003188D16790C031C8E1103188E15A32E84
:1004E800700C2200031C8C1203188C16700C031C51
:1004F8000E1103180E15700C031C0C1203180C16A1
:10050800700C031C8E1003188E14790C031C0C112C
:1005180003180C15700C031C0E1003180E14700C25
:10052800031C8D1203188D16790C031C8E110318E9
:100538008E15A32E700C2200031C8C1203188C1627
:10054800700C031C0E1103180E15700C031C0C12F2
:1005580003180C16790C031C8E1003188E14700CDB
:10056800031C0C1103180C15700C031C0E10031837
:100578000E14700C031C8D1203188D16790C031CB5
:100588008E1103188E15A32E790C2200031C8C12D1
:1005980003188C16790C031C0E1103180E15700C19
:1005A800031C0C1203180C16700C031C8E10031875
:1005B8008E14700C031C0C1103180C15700C031C02
:1005C8000E1003180E14700C031C8D1203188D16D0
:1005D800790C031C8E1103188E15A32E700C2200A3
:1005E800031C8C1203188C16790C031C0E110318AB
:1005F8000E15790C031C0C1203180C16700C031C36
:100608008E1003188E14700C031C0C1103180C1593
:10061800700C031C0E1003180E14790C031C8D1299
:1006280003188D16790C031C8E1103188E15A32E32
:10063800790C2200031C8C1203188C16700C031CF6
:100648000E1103180E15700C031C0C1203180C164F
:10065800700C031C8E1003188E14700C031C0C11E4
:1006680003180C15790C031C0E1003180E14700CCB
:10067800031C8D1203188D16790C031C8E11031898
:100688008E15A32E700C2200031C8C1203188C16D6
:10069800790C031C0E1103180E15790C031C0C128F
:1006A80003180C16700C031C8E1003188E14700C93
:1006B800031C0C1103180C15700C031C0E100318E6
:1006C8000E14700C031C8D1203188D16790C031C64
:1006D8008E1103188E15A32E700C2200031C8C1289
:1006E80003188C16790C031C0E1103180E15790CBF
:1006F800031C0C1203180C16790C031C8E1003181B
:100708008E14700C031C0C1103180C15700C031CB0
:100718000E1003180E14700C031C8D1203188D167E
:10072800790C031C8E1103188E15A32E700C220051
:10073800031C8C1203188C16700C031C0E11031862
:100748000E15700C031C0C1203180C16700C031CED
:100758008E1003188E14700C031C0C1103180C1542
:10076800700C031C0E1003180E14790C031C8D1248
:1007780003188D16700C031C8E1103188E15A32EEA
:10078800790C2200031C8C1203188C16700C031CA5
:100798000E1103180E15700C031C0C1203180C16FE
:1007A800790C031C8E1003188E14790C031C0C1181
:1007B80003180C15790C031C0E1003180E14790C71
:1007C800031C8D1203188D16700C031C8E11031850
:1007D8008E15A32E700C2200031C8C1203188C1685
:1007E800700C031C0E1103180E15790C031C0C1247
:1007F80003180C16700C031C8E1003188E14700C42
:10080800031C0C1103180C15790C031C0E1003188B
:100818000E14700C031C8D1203188D16700C031C1B
:100828008E1103188E15A32E700C2200031C8C1237
:1008380003188C16700C031C0E1103180E15700C7F
:10084800031C0C1203180C16700C031C8E100318D2
:100858008E14790C031C0C1103180C15790C031C4D
:100868000E1003180E14700C031C8D1203188D162D
:10087800700C031C8E1103188E15A32E790C220000
:10088800031C8C1203188C16700C031C0E11031811
:100898000E15700C031C0C1203180C16790C031C93
:1008A8008E1003188E14790C031C0C1103180C15E8
:1008B800700C031C0E1003180E14700C031C8D1200
:1008C80003188D16700C031C8E1103188E15A32E99
:1008D800700C2200031C8C1203188C16790C031C54
:1008E8000E1103180E15700C031C0C1203180C16AD
:1008F800700C031C8E1003188E14790C031C0C1139
:1009080003180C15700C031C0E1003180E14700C31
:10091800031C8D1203188D16700C031C8E110318FE
:100928008E15A32E700C2200031C8C1203188C1633
:10093800790C031C0E1103180E15700C031C0C12F5
:1009480003180C16700C031C8E1003188E14700CF0
:10095800031C0C1103180C15700C031C0E10031843
:100968000E14700C031C8D1203188D16700C031CCA
:100978008E1103188E15A32E700C2200031C8C12E6
:1009880003188C16700C031C0E1103180E15700C2E
:10099800031C0C1203180C16790C031C8E10031878
:1009A8008E14790C031C0C1103180C15790C031CFC
:1009B8000E1003180E14790C031C8D1203188D16D3
:1009C800700C031C8E1103188E15A32E700C2200B8
:1009D800031C8C1203188C16700C031C0E110318C0
:1009E8000E15700C031C0C1203180C16700C031C4B
:1009F8008E1003188E14700C031C0C1103180C15A0
:100A0800700C031C0E1003180E14700C031C8D12AE
:100A180003188D16700C031C8E1103188E15A32E47
:100A2800700C2200031C8C1203188C16700C031C0B
:100A38000E1103180E15700C031C0C1203180C165B
:100A4800700C031C8E1003188E14790C031C0C11E7
:100A580003180C15700C031C0E1003180E14700CE0
:100A6800031C8D1203188D16700C031C8E110318AD
:100A78008E15A32E700C2200031C8C1203188C16E2
:100A8800700C031C0E1103180E15700C031C0C12AD
:100A980003180C16790C031C8E1003188E14700C96
:100AA800031C0C1103180C15700C031C0E100318F2
:100AB8000E14700C031C8D1203188D16700C031C79
:100AC8008E1103188E15A32E790C2200031C8C128C
:100AD80003188C16790C031C0E1103180E15700CD4
:100AE800031C0C1203180C16700C031C8E10031830
:100AF8008E14700C031C0C1103180C15700C031CBD
:100B08000E1003180E14700C031C8D1203188D168A
:100B1800700C031C8E1103188E15A32E700C220066
:100B2800031C8C1203188C16790C031C0E11031865
:100B38000E15790C031C0C1203180C16700C031CF0
:100B48008E1003188E14700C031C0C1103180C154E
:100B5800700C031C0E1003180E14790C031C8D1254
:100B680003188D16700C031C8E1103188E15A32EF6
:100B7800790C2200031C8C1203188C16700C031CB1
:100B88000E1103180E15700C031C0C1203180C160A
:100B9800700C031C8E1003188E14700C031C0C119F
:100BA80003180C15790C031C0E1003180E14700C86
:100BB800031C8D1203188D16700C031C8E1103185C
:100BC8008E15A32E700C2200031C8C1203188C1691
:100BD800790C031C0E1103180E15790C031C0C124A
:100BE80003180C16700C031C8E1003188E14700C4E
:100BF800031C0C1103180C15700C031C0E100318A1
:100C08000E14700C031C8D1203188D16700C031C27
:100C18008E1103188E15A32E700C2200031C8C1243
:100C280003188C16790C031C0E1103180E15790C79
:100C3800031C0C1203180C16790C031C8E100318D5
:100C48008E14700C031C0C1103180C15700C031C6B
:100C58000E1003180E14700C031C8D1203188D1639
:100C6800700C031C8E1103188E15A32EA32E2000C2
:100C78003108003A0319412EA32E3008003A03190F
:100C8800FA28013A03192429033A03194E29013A8B
:100C980003197829073A0319A229013A0319CC291B
:100CA800033A0319F629013A0319202A0F3A0319BE
:100CB8004A2A013A0319742A033A03199E2A013A67
:100CC8000319C82A073A0319F22A013A03191C2BF7
:100CD800033A0319462B013A0319702B8F3A03196B
:100CE8009A2B013A0319C42B033A0319EE2B013A44
:100CF8000319182C073A0319422C013A03196C2CD2
:100D0800033A0319962C013A0319C02C0F3A031918
:100D1800EA2C013A0319142D033A03193E2D013A1E
:100D28000319682D073A0319922D013A0319BC2DAE
:100D3800033A0319E62D013A0319102EA32E0800D1
:100D4800790C2200031C8C1203188C16790C031CD6
:100D58000E1103180E15790C031C0C1203180C162F
:100D6800790C031C8E1003188E14790C031C0C11BB
:100D780003180C15790C031C0E1003180E14790CAB
:100D8800031C8D1203188D16790C031C8E11031881
:100D98008E15790C031C0E1303180E17790C031CFF
:100DA8000E1203180E16790C031C8E1203188E16D9
:100DB800790C031C8D1303188D17700C031C8D12EE
:100DC80003188D160800640080010131890BE82E94
:020DD8000034E5
:101C9C00F001F901F90A210019179916191699156D
:101CAC009914191422001D160B3021008C00503091
:101CBC008D008E0123008C018D018E0124008C017E
:101CCC008D01200091112100911524009401053003
:101CDC0095009701793020009C000A309B009110F0
:101CEC002100911420009A01790C2200031C8C1203
:101CFC0003188C16790C031C0E1103180E15790C95
:101D0C00031C0C1203180C16790C031C8E100318F0
:101D1C008E14790C031C0C1103180C15790C031C74
:101D2C000E1003180E14790C031C8D1203188D164B
:101D3C00790C031C8E1103188E15790C031C0E13D1
:101D4C0003180E17790C031C0E1203180E16790CBF
:101D5C00031C8E1203188E16790C031C8D1303189A
:101D6C008D17F5012000A901AA01A001A101F20122
:101D7C00F1018B170B172400951620001C15C62E8D
:101D8C002903031DCA2ECB2EC62E2A03031DCF2ECC
:101D9C00D02EE12F442F442F7108031DD62ED72EA1
:101DAC00E22E7208B200B3013208B0003308B10061
:101DBC008031BC208E31E62E8631A4268E31E62E63
:101DCC00700C2200031C0E1303180E17F92F71034D
:101DDC00031DF12EF22EFE2E72082000B200B3016C
:101DEC003208B0003308B1008031BC208E31022F94
:101DFC008631A4268E31022F700C2200031C0E1289
:101E0C0003180E16F92F02307106031D0E2F0F2F1B
:101E1C001B2F72082000B200B3013208B000330847
:101E2C00B1008031BC208E311F2F8631A4268E311B
:101E3C001F2F700C2200031C8E1203188E16F92F04
:101E4C0003307106031D2B2F2C2F382F7208200006
:101E5C00B200B3013208B0003308B1008031BC20AD
:101E6C008E313C2F8631A4268E313C2F700C2200F3
:101E7C00031C8D1303188D17F92FF92F75082000EB
:101E8C00B200B3013308003A03194D2FF92F320871
:101E9C00003A0319D22E013A0319ED2E033A031915
:101EAC00092F013A0319262FF92FF92FE12F73036C
:101EBC00031D612F622F6A2F0E30B0000030B1006D
:101ECC008031BC208E31762F20002F08B200B30158
:101EDC003208B0003308B1008031BC208E31762F2F
:101EEC00700C2200031C0E1303180E17F92F73032A
:101EFC00031D812F822F8B2F0E302000B00000305D
:101F0C00B1008031BC208E31972F20002E08B200FA
:101F1C00B3013208B0003308B1008031BC208E31DF
:101F2C00972F700C2200031C0E1203180E16F92F9B
:101F3C007303031DA22FA32FAC2F0E302000B00073
:101F4C000030B1008031BC208E31B82F20002D081C
:101F5C00B200B3013208B0003308B1008031BC20AC
:101F6C008E31B82F700C2200031C8E1203188E16A3
:101F7C00F92F7303031DC32FC42FCD2F0E30200058
:101F8C00B0000030B1008031BC208E31D92F200040
:101F9C002C08B200B3013208B0003308B100803114
:101FAC00BC208E31D92F700C2200031C8D1303180A
:101FBC008D17F92FF92F75082000B200B3013308E3
:101FCC00003A0319EA2FF92F3208003A03195D2F52
:101FDC00013A03197D2F033A03199E2F013A031975
:101FEC00BF2FF92FF92F2000A901C62EC62EC62E01
:041FFC008031A82860
:020000040001F9
:04000E00A4C9FFDFA3
:00000001FF
